{
  "address": "0x7891Df7538Fb7356B6D1910E0937f66e1866662b",
  "abi": [
    {
      "inputs": [
        {
          "internalType": "contract IOuterSpace",
          "name": "outerspace",
          "type": "address"
        }
      ],
      "stateMutability": "nonpayable",
      "type": "constructor"
    },
    {
      "anonymous": false,
      "inputs": [
        {
          "indexed": true,
          "internalType": "uint256",
          "name": "location",
          "type": "uint256"
        },
        {
          "indexed": true,
          "internalType": "address",
          "name": "owner",
          "type": "address"
        }
      ],
      "name": "SaleCancelled",
      "type": "event"
    },
    {
      "anonymous": false,
      "inputs": [
        {
          "indexed": true,
          "internalType": "uint256",
          "name": "location",
          "type": "uint256"
        },
        {
          "indexed": true,
          "internalType": "address",
          "name": "owner",
          "type": "address"
        },
        {
          "indexed": false,
          "internalType": "uint256",
          "name": "pricePerUnit",
          "type": "uint256"
        },
        {
          "indexed": false,
          "internalType": "uint256",
          "name": "spaceshipsToKeep",
          "type": "uint256"
        }
      ],
      "name": "SpaceshipsForSale",
      "type": "event"
    },
    {
      "anonymous": false,
      "inputs": [
        {
          "indexed": true,
          "internalType": "uint256",
          "name": "location",
          "type": "uint256"
        },
        {
          "indexed": true,
          "internalType": "address",
          "name": "fleetOwner",
          "type": "address"
        },
        {
          "indexed": false,
          "internalType": "uint256",
          "name": "numSpaceships",
          "type": "uint256"
        }
      ],
      "name": "SpaceshipsSold",
      "type": "event"
    },
    {
      "inputs": [
        {
          "internalType": "uint256",
          "name": "location",
          "type": "uint256"
        }
      ],
      "name": "cancelSale",
      "outputs": [],
      "stateMutability": "nonpayable",
      "type": "function"
    },
    {
      "inputs": [
        {
          "internalType": "uint256[]",
          "name": "locations",
          "type": "uint256[]"
        }
      ],
      "name": "getSales",
      "outputs": [
        {
          "components": [
            {
              "internalType": "uint184",
              "name": "pricePerUnit",
              "type": "uint184"
            },
            {
              "internalType": "uint32",
              "name": "spaceshipsToKeep",
              "type": "uint32"
            },
            {
              "internalType": "uint40",
              "name": "timestamp",
              "type": "uint40"
            }
          ],
          "internalType": "struct BasicSpaceshipMarket.SpaceshipSale[]",
          "name": "sales",
          "type": "tuple[]"
        }
      ],
      "stateMutability": "view",
      "type": "function"
    },
    {
      "inputs": [
        {
          "internalType": "address",
          "name": "owner",
          "type": "address"
        },
        {
          "internalType": "bytes",
          "name": "data",
          "type": "bytes"
        }
      ],
      "name": "onApprovalForAllBy",
      "outputs": [],
      "stateMutability": "nonpayable",
      "type": "function"
    },
    {
      "inputs": [
        {
          "internalType": "uint256",
          "name": "location",
          "type": "uint256"
        },
        {
          "internalType": "uint32",
          "name": "numSpaceships",
          "type": "uint32"
        },
        {
          "internalType": "address payable",
          "name": "fleetSender",
          "type": "address"
        },
        {
          "internalType": "bytes32",
          "name": "toHash",
          "type": "bytes32"
        }
      ],
      "name": "purchase",
      "outputs": [],
      "stateMutability": "payable",
      "type": "function"
    },
    {
      "inputs": [
        {
          "internalType": "uint256",
          "name": "location",
          "type": "uint256"
        },
        {
          "internalType": "uint184",
          "name": "pricePerUnit",
          "type": "uint184"
        },
        {
          "internalType": "uint32",
          "name": "spaceshipsToKeep",
          "type": "uint32"
        }
      ],
      "name": "setSpaceshipsForSale",
      "outputs": [],
      "stateMutability": "nonpayable",
      "type": "function"
    }
  ],
  "transactionHash": "0x15556e83bf869f460dc46e4a0002ace17298742deb466e9ae3c8c9110133968d",
  "args": [
    "0x5Fe513edf5386C20325d99c371F8dCF776806577"
  ],
  "numDeployments": 1,
  "solcInputHash": "4b4a8a766d371c2dc8b3e766ccd52e7d",
  "bytecode": "0x60a060405234801561001057600080fd5b506040516112a43803806112a483398101604081905261002f91610040565b6001600160a01b0316608052610070565b60006020828403121561005257600080fd5b81516001600160a01b038116811461006957600080fd5b9392505050565b6080516111f66100ae60003960008181610336015281816105fe0152818161068d01528181610817015281816109940152610a8801526111f66000f3fe6080604052600436106100595760003560e01c8063bd94b00511610043578063bd94b005146100a9578063cffb4f51146100c9578063e8d5e76c146100e957600080fd5b8062313a681461005e578063b805f17014610094575b600080fd5b34801561006a57600080fd5b5061007e610079366004610cc3565b610109565b60405161008b9190610d38565b60405180910390f35b6100a76100a2366004610dee565b61027e565b005b3480156100b557600080fd5b506100a76100c4366004610e36565b6107e5565b3480156100d557600080fd5b506100a76100e4366004610e4f565b61097c565b3480156100f557600080fd5b506100a7610104366004610ed4565b610a45565b60608167ffffffffffffffff81111561012457610124610f32565b60405190808252806020026020018201604052801561018d57816020015b60408051606081018252600080825260208083018290529282015282527fffffffffffffffffffffffffffffffffffffffffffffffffffffffffffffffff9092019101816101425790505b50905060005b82811015610277576000808585848181106101b0576101b0610f61565b602090810292909201358352508181019290925260409081016000208151606081018352905476ffffffffffffffffffffffffffffffffffffffffffffff8116825277010000000000000000000000000000000000000000000000810463ffffffff16938201939093527b0100000000000000000000000000000000000000000000000000000090920464ffffffffff1690820152825183908390811061025957610259610f61565b6020026020010181905250808061026f90610fbf565b915050610193565b5092915050565b6000848152602081815260408083208151606081018352905476ffffffffffffffffffffffffffffffffffffffffffffff8116825277010000000000000000000000000000000000000000000000810463ffffffff16938201939093527b0100000000000000000000000000000000000000000000000000000090920464ffffffffff1682820152517f8a886cd5000000000000000000000000000000000000000000000000000000008152600481018790529091907f000000000000000000000000000000000000000000000000000000000000000073ffffffffffffffffffffffffffffffffffffffff1690638a886cd590602401604080518083038186803b15801561038c57600080fd5b505afa1580156103a0573d6000803e3d6000fd5b505050506040513d601f19601f820116820180604052508101906103c4919061101d565b9150508064ffffffffff16826040015164ffffffffff1611610447576040517f08c379a000000000000000000000000000000000000000000000000000000000815260206004820152601f60248201527f4f574e4552534849505f4348414e4745445f53414c455f4f555444415445440060448201526064015b60405180910390fd5b815160009061045c9063ffffffff8816611052565b76ffffffffffffffffffffffffffffffffffffffffffffff169050803410156104e1576040517f08c379a000000000000000000000000000000000000000000000000000000000815260206004820152600f60248201527f4e4f545f454e4f5547485f46554e440000000000000000000000000000000000604482015260640161043e565b60405173ffffffffffffffffffffffffffffffffffffffff86169082156108fc029083906000818181858888f19350505050158015610524573d6000803e3d6000fd5b508034111561056557336108fc61053b8334611091565b6040518115909202916000818181858888f19350505050158015610563573d6000803e3d6000fd5b505b6040805160a08101825273ffffffffffffffffffffffffffffffffffffffff878116825233602083019081528284018b815263ffffffff8b811660608601908152608086018b815296517fcf3ecf070000000000000000000000000000000000000000000000000000000081528651861660048201529351851660248501529151604484015290511660648201529251608484015290917f00000000000000000000000000000000000000000000000000000000000000009091169063cf3ecf079060a401600060405180830381600087803b15801561064457600080fd5b505af1158015610658573d6000803e3d6000fd5b50506040517fd522989e000000000000000000000000000000000000000000000000000000008152600481018b9052600092507f000000000000000000000000000000000000000000000000000000000000000073ffffffffffffffffffffffffffffffffffffffff16915063d522989e9060240160e06040518083038186803b1580156106e557600080fd5b505afa1580156106f9573d6000803e3d6000fd5b505050506040513d601f19601f8201168201806040525081019061071d91906110c5565b9050846020015163ffffffff16816060015163ffffffff16101561079d576040517f08c379a000000000000000000000000000000000000000000000000000000000815260206004820152601a60248201527f544f4f5f4d414e595f535041434553484950535f424f55474854000000000000604482015260640161043e565b60405163ffffffff8916815233908a907f8b6f89fabaaf5afc397f49d27a56a776e556e3901166876ef1f0240d0e8b4f6f9060200160405180910390a3505050505050505050565b6040517f6352211e000000000000000000000000000000000000000000000000000000008152600481018290526000907f000000000000000000000000000000000000000000000000000000000000000073ffffffffffffffffffffffffffffffffffffffff1690636352211e9060240160206040518083038186803b15801561086e57600080fd5b505afa158015610882573d6000803e3d6000fd5b505050506040513d601f19601f820116820180604052508101906108a6919061119c565b905073ffffffffffffffffffffffffffffffffffffffff81163314610927576040517f08c379a000000000000000000000000000000000000000000000000000000000815260206004820152601060248201527f4e4f545f504c414e45545f4f574e455200000000000000000000000000000000604482015260640161043e565b6000828152602081905260408082208290555173ffffffffffffffffffffffffffffffffffffffff83169184917fd9e530acb8429c8e5337d9d3230e4cc7d742e32c2fc8d76608c19f2e1701ed049190a35050565b3373ffffffffffffffffffffffffffffffffffffffff7f00000000000000000000000000000000000000000000000000000000000000001614610a1b576040517f08c379a000000000000000000000000000000000000000000000000000000000815260206004820152601d60248201527f415050524f56454442595f455850454354535f4f555445525350414345000000604482015260640161043e565b60008080610a2b84860186610ed4565b925092509250610a3d86848484610a56565b505050505050565b610a5133848484610a56565b505050565b6040517f6352211e000000000000000000000000000000000000000000000000000000008152600481018490526000907f000000000000000000000000000000000000000000000000000000000000000073ffffffffffffffffffffffffffffffffffffffff1690636352211e9060240160206040518083038186803b158015610adf57600080fd5b505afa158015610af3573d6000803e3d6000fd5b505050506040513d601f19601f82011682018060405250810190610b17919061119c565b90508473ffffffffffffffffffffffffffffffffffffffff168173ffffffffffffffffffffffffffffffffffffffff1614610bae576040517f08c379a000000000000000000000000000000000000000000000000000000000815260206004820152601060248201527f4e4f545f504c414e45545f4f574e455200000000000000000000000000000000604482015260640161043e565b60008481526020818152604091829020805476ffffffffffffffffffffffffffffffffffffffffffffff87167fffffffffff00000000000000000000000000000000000000000000000000000090911681177701000000000000000000000000000000000000000000000063ffffffff8816908102919091177affffffffffffffffffffffffffffffffffffffffffffffffffffff167b010000000000000000000000000000000000000000000000000000004264ffffffffff16021790925583519081529182015273ffffffffffffffffffffffffffffffffffffffff83169186917f55df314091a927d9d6ba21ed175552251ddd2705eac87186103e807a4d2171fe910160405180910390a35050505050565b60008060208385031215610cd657600080fd5b823567ffffffffffffffff80821115610cee57600080fd5b818501915085601f830112610d0257600080fd5b813581811115610d1157600080fd5b8660208260051b8501011115610d2657600080fd5b60209290920196919550909350505050565b602080825282518282018190526000919060409081850190868401855b82811015610daa578151805176ffffffffffffffffffffffffffffffffffffffffffffff1685528681015163ffffffff168786015285015164ffffffffff168585015260609093019290850190600101610d55565b5091979650505050505050565b63ffffffff81168114610dc957600080fd5b50565b73ffffffffffffffffffffffffffffffffffffffff81168114610dc957600080fd5b60008060008060808587031215610e0457600080fd5b843593506020850135610e1681610db7565b92506040850135610e2681610dcc565b9396929550929360600135925050565b600060208284031215610e4857600080fd5b5035919050565b600080600060408486031215610e6457600080fd5b8335610e6f81610dcc565b9250602084013567ffffffffffffffff80821115610e8c57600080fd5b818601915086601f830112610ea057600080fd5b813581811115610eaf57600080fd5b876020828501011115610ec157600080fd5b6020830194508093505050509250925092565b600080600060608486031215610ee957600080fd5b83359250602084013576ffffffffffffffffffffffffffffffffffffffffffffff81168114610f1757600080fd5b91506040840135610f2781610db7565b809150509250925092565b7f4e487b7100000000000000000000000000000000000000000000000000000000600052604160045260246000fd5b7f4e487b7100000000000000000000000000000000000000000000000000000000600052603260045260246000fd5b7f4e487b7100000000000000000000000000000000000000000000000000000000600052601160045260246000fd5b60007fffffffffffffffffffffffffffffffffffffffffffffffffffffffffffffffff821415610ff157610ff1610f90565b5060010190565b805161100381610dcc565b919050565b805164ffffffffff8116811461100357600080fd5b6000806040838503121561103057600080fd5b825161103b81610dcc565b915061104960208401611008565b90509250929050565b600076ffffffffffffffffffffffffffffffffffffffffffffff8083168185168183048111821515161561108857611088610f90565b02949350505050565b6000828210156110a3576110a3610f90565b500390565b805161100381610db7565b8051600481900b811461100357600080fd5b600060e082840312156110d757600080fd5b60405160e0810181811067ffffffffffffffff82111715611121577f4e487b7100000000000000000000000000000000000000000000000000000000600052604160045260246000fd5b60405261112d83610ff8565b815261113b60208401611008565b602082015261114c60408401611008565b604082015261115d606084016110a8565b606082015261116e60808401611008565b608082015261117f60a084016110b3565b60a082015261119060c084016110a8565b60c08201529392505050565b6000602082840312156111ae57600080fd5b81516111b981610dcc565b939250505056fea26469706673582212200235e3d19ee6ab44cc2b6bcc99fda8e4782f83cd2e426f665e5c2cc259e47e7464736f6c63430008090033",
  "devdoc": {
    "kind": "dev",
    "methods": {
      "getSales(uint256[])": {
        "details": "useful to get data without any off-chain caching, but does not scale to many locations"
      }
    },
    "version": 1
  },
  "userdoc": {
    "kind": "user",
    "methods": {},
    "version": 1
  },
  "storageLayout": {
    "storage": [
      {
        "astId": 119,
        "contract": "src/BasicSpaceshipMarket.sol:BasicSpaceshipMarket",
        "label": "_sales",
        "offset": 0,
        "slot": "0",
        "type": "t_mapping(t_uint256,t_struct(SpaceshipSale)114_storage)"
      }
    ],
    "types": {
      "t_mapping(t_uint256,t_struct(SpaceshipSale)114_storage)": {
        "encoding": "mapping",
        "key": "t_uint256",
        "label": "mapping(uint256 => struct BasicSpaceshipMarket.SpaceshipSale)",
        "numberOfBytes": "32",
        "value": "t_struct(SpaceshipSale)114_storage"
      },
      "t_struct(SpaceshipSale)114_storage": {
        "encoding": "inplace",
        "label": "struct BasicSpaceshipMarket.SpaceshipSale",
        "members": [
          {
            "astId": 109,
            "contract": "src/BasicSpaceshipMarket.sol:BasicSpaceshipMarket",
            "label": "pricePerUnit",
            "offset": 0,
            "slot": "0",
            "type": "t_uint184"
          },
          {
            "astId": 111,
            "contract": "src/BasicSpaceshipMarket.sol:BasicSpaceshipMarket",
            "label": "spaceshipsToKeep",
            "offset": 23,
            "slot": "0",
            "type": "t_uint32"
          },
          {
            "astId": 113,
            "contract": "src/BasicSpaceshipMarket.sol:BasicSpaceshipMarket",
            "label": "timestamp",
            "offset": 27,
            "slot": "0",
            "type": "t_uint40"
          }
        ],
        "numberOfBytes": "32"
      },
      "t_uint184": {
        "encoding": "inplace",
        "label": "uint184",
        "numberOfBytes": "23"
      },
      "t_uint256": {
        "encoding": "inplace",
        "label": "uint256",
        "numberOfBytes": "32"
      },
      "t_uint32": {
        "encoding": "inplace",
        "label": "uint32",
        "numberOfBytes": "4"
      },
      "t_uint40": {
        "encoding": "inplace",
        "label": "uint40",
        "numberOfBytes": "5"
      }
    }
  }
}