{
  "address": "0xf7347D4795CA2F35616f87fB85aDD530AD65ee4f",
  "abi": [
    {
      "inputs": [
        {
          "internalType": "contract IOuterSpace",
          "name": "outerspace",
          "type": "address"
        }
      ],
      "stateMutability": "nonpayable",
      "type": "constructor"
    },
    {
      "anonymous": false,
      "inputs": [
        {
          "indexed": true,
          "internalType": "uint256",
          "name": "location",
          "type": "uint256"
        },
        {
          "indexed": true,
          "internalType": "address",
          "name": "owner",
          "type": "address"
        }
      ],
      "name": "SaleCancelled",
      "type": "event"
    },
    {
      "anonymous": false,
      "inputs": [
        {
          "indexed": true,
          "internalType": "uint256",
          "name": "location",
          "type": "uint256"
        },
        {
          "indexed": true,
          "internalType": "address",
          "name": "owner",
          "type": "address"
        },
        {
          "indexed": false,
          "internalType": "uint256",
          "name": "pricePerUnit",
          "type": "uint256"
        },
        {
          "indexed": false,
          "internalType": "uint256",
          "name": "spaceshipsToKeep",
          "type": "uint256"
        },
        {
          "indexed": false,
          "internalType": "uint256",
          "name": "spaceshipsToSell",
          "type": "uint256"
        }
      ],
      "name": "SpaceshipsForSale",
      "type": "event"
    },
    {
      "anonymous": false,
      "inputs": [
        {
          "indexed": true,
          "internalType": "uint256",
          "name": "location",
          "type": "uint256"
        },
        {
          "indexed": true,
          "internalType": "address",
          "name": "fleetOwner",
          "type": "address"
        },
        {
          "indexed": false,
          "internalType": "uint256",
          "name": "numSpaceships",
          "type": "uint256"
        }
      ],
      "name": "SpaceshipsSold",
      "type": "event"
    },
    {
      "inputs": [
        {
          "internalType": "uint256",
          "name": "location",
          "type": "uint256"
        }
      ],
      "name": "cancelSale",
      "outputs": [],
      "stateMutability": "nonpayable",
      "type": "function"
    },
    {
      "inputs": [
        {
          "internalType": "uint256[]",
          "name": "locations",
          "type": "uint256[]"
        }
      ],
      "name": "getSales",
      "outputs": [
        {
          "components": [
            {
              "internalType": "uint144",
              "name": "pricePerUnit",
              "type": "uint144"
            },
            {
              "internalType": "uint256",
              "name": "spaceshipsToKeep",
              "type": "uint256"
            },
            {
              "internalType": "uint40",
              "name": "spaceshipsLeftToSell",
              "type": "uint40"
            },
            {
              "internalType": "uint40",
              "name": "timestamp",
              "type": "uint40"
            }
          ],
          "internalType": "struct BasicSpaceshipMarket.SpaceshipSale[]",
          "name": "sales",
          "type": "tuple[]"
        }
      ],
      "stateMutability": "view",
      "type": "function"
    },
    {
      "inputs": [
        {
          "internalType": "address",
          "name": "owner",
          "type": "address"
        },
        {
          "internalType": "bytes",
          "name": "data",
          "type": "bytes"
        }
      ],
      "name": "onApprovalForAllBy",
      "outputs": [],
      "stateMutability": "nonpayable",
      "type": "function"
    },
    {
      "inputs": [
        {
          "internalType": "uint256",
          "name": "location",
          "type": "uint256"
        },
        {
          "internalType": "uint32",
          "name": "numSpaceships",
          "type": "uint32"
        },
        {
          "internalType": "address payable",
          "name": "fleetSender",
          "type": "address"
        },
        {
          "internalType": "bytes32",
          "name": "toHash",
          "type": "bytes32"
        }
      ],
      "name": "purchase",
      "outputs": [],
      "stateMutability": "payable",
      "type": "function"
    },
    {
      "inputs": [
        {
          "internalType": "uint256",
          "name": "location",
          "type": "uint256"
        },
        {
          "internalType": "uint144",
          "name": "pricePerUnit",
          "type": "uint144"
        },
        {
          "internalType": "uint32",
          "name": "spaceshipsToKeep",
          "type": "uint32"
        },
        {
          "internalType": "uint40",
          "name": "spaceshipsToSell",
          "type": "uint40"
        }
      ],
      "name": "setSpaceshipsForSale",
      "outputs": [],
      "stateMutability": "nonpayable",
      "type": "function"
    }
  ],
  "transactionHash": "0x49a64ea157469e4fb3845b68ca8c6c781ce155953a1d9dab8389953a555cbcfd",
  "args": [
    "0x7b2377DdCd36DcDF6b3A8b55a2699E451b932d5B"
  ],
  "numDeployments": 1,
  "solcInputHash": "0e35ea437ed9a6c44f049fc34a9584c0",
  "bytecode": "0x60a060405234801561001057600080fd5b5060405161137938038061137983398101604081905261002f91610040565b6001600160a01b0316608052610070565b60006020828403121561005257600080fd5b81516001600160a01b038116811461006957600080fd5b9392505050565b6080516112cb6100ae600039600081816102fa01528181610659015281816106f30152818161087701528181610a470152610b2f01526112cb6000f3fe6080604052600436106100595760003560e01c8063b805f17011610043578063b805f170146100b6578063bd94b005146100c9578063cffb4f51146100e957600080fd5b8062313a681461005e5780636c0000d014610094575b600080fd5b34801561006a57600080fd5b5061007e610079366004610d5a565b610109565b60405161008b9190610dcf565b60405180910390f35b3480156100a057600080fd5b506100b46100af366004610e79565b61025b565b005b6100b46100c4366004610f05565b61026e565b3480156100d557600080fd5b506100b46100e4366004610f4d565b610845565b3480156100f557600080fd5b506100b4610104366004610f66565b610a2f565b60608167ffffffffffffffff81111561012457610124610feb565b60405190808252806020026020018201604052801561019457816020015b6040805160808101825260008082526020808301829052928201819052606082015282527fffffffffffffffffffffffffffffffffffffffffffffffffffffffffffffffff9092019101816101425790505b50905060005b82811015610254576000808585848181106101b7576101b761101a565b602090810292909201358352508181019290925260409081016000208151608081018352815471ffffffffffffffffffffffffffffffffffff1681526001820154938101939093526002015464ffffffffff8082169284019290925265010000000000900416606082015282518390839081106102365761023661101a565b6020026020010181905250808061024c90611078565b91505061019a565b5092915050565b6102683385858585610afd565b50505050565b6000848152602081815260408083208151608081018352815471ffffffffffffffffffffffffffffffffffff1681526001820154938101939093526002015464ffffffffff8082168484015265010000000000909104166060830152517f8a886cd5000000000000000000000000000000000000000000000000000000008152600481018790529091907f000000000000000000000000000000000000000000000000000000000000000073ffffffffffffffffffffffffffffffffffffffff1690638a886cd590602401604080518083038186803b15801561035057600080fd5b505afa158015610364573d6000803e3d6000fd5b505050506040513d601f19601f8201168201806040525081019061038891906110cc565b9150508064ffffffffff16826060015164ffffffffff161161040b576040517f08c379a000000000000000000000000000000000000000000000000000000000815260206004820152601f60248201527f4f574e4552534849505f4348414e4745445f53414c455f4f555444415445440060448201526064015b60405180910390fd5b8463ffffffff16826040015164ffffffffff1611610485576040517f08c379a000000000000000000000000000000000000000000000000000000000815260206004820152601260248201527f4e4f545f454e4f5547485f4f4e5f53414c4500000000000000000000000000006044820152606401610402565b8463ffffffff168260400181815161049d9190611106565b64ffffffffff1690525081516000906104bc9063ffffffff881661112c565b71ffffffffffffffffffffffffffffffffffff1690508034101561053c576040517f08c379a000000000000000000000000000000000000000000000000000000000815260206004820152600f60248201527f4e4f545f454e4f5547485f46554e4400000000000000000000000000000000006044820152606401610402565b60405173ffffffffffffffffffffffffffffffffffffffff86169082156108fc029083906000818181858888f1935050505015801561057f573d6000803e3d6000fd5b50803411156105c057336108fc6105968334611166565b6040518115909202916000818181858888f193505050501580156105be573d6000803e3d6000fd5b505b6040805160a08101825273ffffffffffffffffffffffffffffffffffffffff878116825233602083019081528284018b815263ffffffff8b811660608601908152608086018b815296517fcf3ecf070000000000000000000000000000000000000000000000000000000081528651861660048201529351851660248501529151604484015290511660648201529251608484015290917f00000000000000000000000000000000000000000000000000000000000000009091169063cf3ecf079060a401600060405180830381600087803b15801561069f57600080fd5b505af11580156106b3573d6000803e3d6000fd5b505050506020840151156107fe576040517fd522989e000000000000000000000000000000000000000000000000000000008152600481018990526000907f000000000000000000000000000000000000000000000000000000000000000073ffffffffffffffffffffffffffffffffffffffff169063d522989e9060240160e06040518083038186803b15801561074a57600080fd5b505afa15801561075e573d6000803e3d6000fd5b505050506040513d601f19601f82011682018060405250810190610782919061119a565b90508460200151816060015163ffffffff1610156107fc576040517f08c379a000000000000000000000000000000000000000000000000000000000815260206004820152601a60248201527f544f4f5f4d414e595f535041434553484950535f424f554748540000000000006044820152606401610402565b505b60405163ffffffff88168152339089907f8b6f89fabaaf5afc397f49d27a56a776e556e3901166876ef1f0240d0e8b4f6f9060200160405180910390a35050505050505050565b6040517f6352211e000000000000000000000000000000000000000000000000000000008152600481018290526000907f000000000000000000000000000000000000000000000000000000000000000073ffffffffffffffffffffffffffffffffffffffff1690636352211e9060240160206040518083038186803b1580156108ce57600080fd5b505afa1580156108e2573d6000803e3d6000fd5b505050506040513d601f19601f820116820180604052508101906109069190611271565b905073ffffffffffffffffffffffffffffffffffffffff81163314610987576040517f08c379a000000000000000000000000000000000000000000000000000000000815260206004820152601060248201527f4e4f545f504c414e45545f4f574e4552000000000000000000000000000000006044820152606401610402565b60008281526020819052604080822080547fffffffffffffffffffffffffffff0000000000000000000000000000000000001681556001810183905560020180547fffffffffffffffffffffffffffffffffffffffffffff000000000000000000001690555173ffffffffffffffffffffffffffffffffffffffff83169184917fd9e530acb8429c8e5337d9d3230e4cc7d742e32c2fc8d76608c19f2e1701ed049190a35050565b3373ffffffffffffffffffffffffffffffffffffffff7f00000000000000000000000000000000000000000000000000000000000000001614610ace576040517f08c379a000000000000000000000000000000000000000000000000000000000815260206004820152601d60248201527f415050524f56454442595f455850454354535f4f5554455253504143450000006044820152606401610402565b6000808080610adf85870187610e79565b9350935093509350610af48785858585610afd565b50505050505050565b6040517f6352211e000000000000000000000000000000000000000000000000000000008152600481018590526000907f000000000000000000000000000000000000000000000000000000000000000073ffffffffffffffffffffffffffffffffffffffff1690636352211e9060240160206040518083038186803b158015610b8657600080fd5b505afa158015610b9a573d6000803e3d6000fd5b505050506040513d601f19601f82011682018060405250810190610bbe9190611271565b90508573ffffffffffffffffffffffffffffffffffffffff168173ffffffffffffffffffffffffffffffffffffffff1614610c55576040517f08c379a000000000000000000000000000000000000000000000000000000000815260206004820152601060248201527f4e4f545f504c414e45545f4f574e4552000000000000000000000000000000006044820152606401610402565b6000858152602081815260409182902080547fffffffffffffffffffffffffffff0000000000000000000000000000000000001671ffffffffffffffffffffffffffffffffffff8816908117825563ffffffff8716600183018190556002909201805464ffffffffff8881167fffffffffffffffffffffffffffffffffffffffffffff00000000000000000000909216821765010000000000429290921691909102179091558451918252928101919091529182015273ffffffffffffffffffffffffffffffffffffffff82169086907f8e29bd07f1849718cb90b01b7744544687836ed3612e0ba9180d868462c19dcc9060600160405180910390a3505050505050565b60008060208385031215610d6d57600080fd5b823567ffffffffffffffff80821115610d8557600080fd5b818501915085601f830112610d9957600080fd5b813581811115610da857600080fd5b8660208260051b8501011115610dbd57600080fd5b60209290920196919550909350505050565b602080825282518282018190526000919060409081850190868401855b82811015610e44578151805171ffffffffffffffffffffffffffffffffffff16855286810151878601528581015164ffffffffff90811687870152606091820151169085015260809093019290850190600101610dec565b5091979650505050505050565b63ffffffff81168114610e6357600080fd5b50565b64ffffffffff81168114610e6357600080fd5b60008060008060808587031215610e8f57600080fd5b84359350602085013571ffffffffffffffffffffffffffffffffffff81168114610eb857600080fd5b92506040850135610ec881610e51565b91506060850135610ed881610e66565b939692955090935050565b73ffffffffffffffffffffffffffffffffffffffff81168114610e6357600080fd5b60008060008060808587031215610f1b57600080fd5b843593506020850135610f2d81610e51565b92506040850135610f3d81610ee3565b9396929550929360600135925050565b600060208284031215610f5f57600080fd5b5035919050565b600080600060408486031215610f7b57600080fd5b8335610f8681610ee3565b9250602084013567ffffffffffffffff80821115610fa357600080fd5b818601915086601f830112610fb757600080fd5b813581811115610fc657600080fd5b876020828501011115610fd857600080fd5b6020830194508093505050509250925092565b7f4e487b7100000000000000000000000000000000000000000000000000000000600052604160045260246000fd5b7f4e487b7100000000000000000000000000000000000000000000000000000000600052603260045260246000fd5b7f4e487b7100000000000000000000000000000000000000000000000000000000600052601160045260246000fd5b60007fffffffffffffffffffffffffffffffffffffffffffffffffffffffffffffffff8214156110aa576110aa611049565b5060010190565b80516110bc81610ee3565b919050565b80516110bc81610e66565b600080604083850312156110df57600080fd5b82516110ea81610ee3565b60208401519092506110fb81610e66565b809150509250929050565b600064ffffffffff8381169083168181101561112457611124611049565b039392505050565b600071ffffffffffffffffffffffffffffffffffff8083168185168183048111821515161561115d5761115d611049565b02949350505050565b60008282101561117857611178611049565b500390565b80516110bc81610e51565b8051600481900b81146110bc57600080fd5b600060e082840312156111ac57600080fd5b60405160e0810181811067ffffffffffffffff821117156111f6577f4e487b7100000000000000000000000000000000000000000000000000000000600052604160045260246000fd5b604052611202836110b1565b8152611210602084016110c1565b6020820152611221604084016110c1565b60408201526112326060840161117d565b6060820152611243608084016110c1565b608082015261125460a08401611188565b60a082015261126560c0840161117d565b60c08201529392505050565b60006020828403121561128357600080fd5b815161128e81610ee3565b939250505056fea26469706673582212205a684945c9bd364bf455947df20b1270538d7e4f93ed7bfb2ae552aa7d54722064736f6c63430008090033",
  "devdoc": {
    "kind": "dev",
    "methods": {
      "getSales(uint256[])": {
        "details": "useful to get data without any off-chain caching, but does not scale to many locations"
      }
    },
    "version": 1
  },
  "userdoc": {
    "kind": "user",
    "methods": {},
    "version": 1
  },
  "storageLayout": {
    "storage": [
      {
        "astId": 123,
        "contract": "src/BasicSpaceshipMarket.sol:BasicSpaceshipMarket",
        "label": "_sales",
        "offset": 0,
        "slot": "0",
        "type": "t_mapping(t_uint256,t_struct(SpaceshipSale)118_storage)"
      }
    ],
    "types": {
      "t_mapping(t_uint256,t_struct(SpaceshipSale)118_storage)": {
        "encoding": "mapping",
        "key": "t_uint256",
        "label": "mapping(uint256 => struct BasicSpaceshipMarket.SpaceshipSale)",
        "numberOfBytes": "32",
        "value": "t_struct(SpaceshipSale)118_storage"
      },
      "t_struct(SpaceshipSale)118_storage": {
        "encoding": "inplace",
        "label": "struct BasicSpaceshipMarket.SpaceshipSale",
        "members": [
          {
            "astId": 111,
            "contract": "src/BasicSpaceshipMarket.sol:BasicSpaceshipMarket",
            "label": "pricePerUnit",
            "offset": 0,
            "slot": "0",
            "type": "t_uint144"
          },
          {
            "astId": 113,
            "contract": "src/BasicSpaceshipMarket.sol:BasicSpaceshipMarket",
            "label": "spaceshipsToKeep",
            "offset": 0,
            "slot": "1",
            "type": "t_uint256"
          },
          {
            "astId": 115,
            "contract": "src/BasicSpaceshipMarket.sol:BasicSpaceshipMarket",
            "label": "spaceshipsLeftToSell",
            "offset": 0,
            "slot": "2",
            "type": "t_uint40"
          },
          {
            "astId": 117,
            "contract": "src/BasicSpaceshipMarket.sol:BasicSpaceshipMarket",
            "label": "timestamp",
            "offset": 5,
            "slot": "2",
            "type": "t_uint40"
          }
        ],
        "numberOfBytes": "96"
      },
      "t_uint144": {
        "encoding": "inplace",
        "label": "uint144",
        "numberOfBytes": "18"
      },
      "t_uint256": {
        "encoding": "inplace",
        "label": "uint256",
        "numberOfBytes": "32"
      },
      "t_uint40": {
        "encoding": "inplace",
        "label": "uint40",
        "numberOfBytes": "5"
      }
    }
  }
}